:020000040800F2
:10000000000800205D1A0008290900082B090008D3
:1000100000000000000000000000000000000000E0
:100020000000000000000000000000002D09000892
:1000300000000000000000002F090008310900083E
:10004000DD1A0008DD1A0008DD1A0008DD1A0008B4
:10005000DD1A0008DD1A0008DD1A0008DD1A0008A4
:1000600000000000DD1A0008DD1A0008DD1A000893
:10007000DD1A0008DD1A0008000000003909000838
:100080000000000000000000000000000000000070
:10009000490900080000000000000000DD1A000807
:1000A00000000000DD1A0008000000000000000051
:1000B000DD1A0008DD1A0008000000000000000042
:1000C000002243088B4274D303098B425FD3030A97
:1000D0008B4244D3030B8B4228D3030C8B420DD3AA
:1000E000FF22090212BA030C8B4202D31212090238
:1000F00065D0030B8B4219D300E0090AC30B8B4276
:1001000001D3CB03C01A5241830B8B4201D38B0323
:10011000C01A5241430B8B4201D34B03C01A5241C8
:10012000030B8B4201D30B03C01A5241C30A8B420B
:1001300001D3CB02C01A5241830A8B4201D38B02F6
:10014000C01A5241430A8B4201D34B02C01A52419A
:10015000030A8B4201D30B02C01A5241CDD2C3090C
:100160008B4201D3CB01C01A524183098B4201D388
:100170008B01C01A524143098B4201D34B01C01A73
:10018000524103098B4201D30B01C01A5241C308EB
:100190008B4201D3CB00C01A524183088B4201D35A
:1001A0008B00C01A524143088B4201D34B00C01A46
:1001B0005241411A00D20146524110467047FFE7B2
:1001C00001B5002000F0F0F802BDC0460029F7D0CC
:1001D00076E7704703460B437FD4002243088B42E7
:1001E00074D303098B425FD3030A8B4244D3030BBE
:1001F0008B4228D3030C8B420DD3FF22090212BA83
:10020000030C8B4202D31212090265D0030B8B42FE
:1002100019D300E0090AC30B8B4201D3CB03C01AE8
:100220005241830B8B4201D38B03C01A5241430BC3
:100230008B4201D34B03C01A5241030B8B4201D3B3
:100240000B03C01A5241C30A8B4201D3CB02C01A1E
:100250005241830A8B4201D38B02C01A5241430A96
:100260008B4201D34B02C01A5241030A8B4201D385
:100270000B02C01A5241CDD2C3098B4201D3CB012C
:10028000C01A524183098B4201D38B01C01A5241DB
:1002900043098B4201D34B01C01A524103098B42DF
:1002A00001D30B01C01A5241C3088B4201D3CB00CA
:1002B000C01A524183088B4201D38B00C01A5241AD
:1002C00043088B4201D34B00C01A5241411A00D25D
:1002D00001465241104670475DE0CA0F00D04942C6
:1002E000031000D34042534000229C4603098B4236
:1002F0002DD3030A8B4212D3FC22890112BA030ABE
:100300008B420CD3890192118B4208D3890192113F
:100310008B4204D389013AD0921100E08909C309C4
:100320008B4201D3CB01C01A524183098B4201D3C6
:100330008B01C01A524143098B4201D34B01C01AB1
:10034000524103098B4201D30B01C01A5241C30829
:100350008B4201D3CB00C01A524183088B4201D398
:100360008B00C01A5241D9D243088B4201D34B00B3
:10037000C01A5241411A00D20146634652415B10F5
:10038000104601D34042002B00D5494270476346D6
:100390005B1000D3404201B5002000F005F802BD1B
:1003A0000029F8D016E770477047C046002B11D1DE
:1003B000002A0FD1002900D1002802D00021C94312
:1003C000080007B4024802A14018029003BDC046CD
:1003D000D9FFFFFF03B4684601B5029801F0DAFBCC
:1003E000019B9E4602B00CBC7047C04610B5002968
:1003F00003D100F007F8203002E0080000F002F816
:1004000010BDC0461C2101231B04984201D3000CDF
:1004100010391B0A984201D3000A08391B09984277
:1004200001D30009043902A2105C40187047C0468D
:1004300004030202010101010000000000000000AD
:1004400010B5064C2378002B07D1054B002B02D0AA
:10045000044800E000BF0123237010BD0C00002001
:10046000000000002C1D0008044B10B5002B03D029
:100470000349044800E000BF10BDC0460000000072
:10048000100000202C1D0008016002710023437140
:100490008371704710B5040002684379D1544079E4
:1004A00001302179FFF77CFF617110BD70B5040048
:1004B000036880791D5C01302179FFF771FFA1711C
:1004C000280070BD43798079181A43425841C0B260
:1004D0007047000070B588B01422002103A801F015
:1004E000FEFA114BDA6A02252A43DA62DA6A2A40F6
:1004F0000192019ADA6A01242243DA62DB6A23401C
:100500000293029B094E00220221300000F09EFB64
:100510000395049400230593069303A9300000F08B
:10052000DDFA08B070BDC046001002400004005063
:1005300010B5344B834200D010BD334B9B78002B59
:100540005BD03248042101F091F8002202213048AA
:1005500000F07CFB2F4B1B78002B18D0082B2ED8DB
:10056000294A11780822D21A012393400B401341E3
:100570001BD02648042101F06BF8012202212448F7
:1005800000F064FB234A137801331370D4E71F484B
:10059000042101F05DF8012202211D4800F056FB04
:1005A0001C4A137801331370C6E71848042101F080
:1005B0005DF800220221164800F048FBE2E7092B13
:1005C00009D0114A52781100083199420CDB114AC6
:1005D00001331370B0E70D48042101F039F80D4ADA
:1005E000137801331370A7E709329342A4D1094B62
:1005F00000221A70044B9A709EE7034800F020F91D
:100600009AE7C046700000202C0000203000002037
:10061000000400502800002072B6FEE700B587B045
:100620001022002102A801F05AFA0822002168468F
:1006300001F055FA14488023DB0503600123436071
:1006400000238360114AC2600361436100F0AFFF81
:10065000002813D180235B0102930B4802A901F00B
:10066000B7F800280CD1002300930193064869468F
:1006700001F0C8F9002805D107B000BDFFF7CCFF95
:10068000FFF7CAFFFFF7C8FF70000020FF0100005E
:1006900000B58BB01022002106A801F020FA082234
:1006A000002104A801F01BFA10220021684601F085
:1006B00016FA2148214B0360002343608360012226
:1006C000C2600361436100F072FF002829D18023DA
:1006D0005B010693184806A901F07AF8002822D198
:1006E000154800F0D8FF00281FD10023049305937C
:1006F000114804A901F086F9002818D1702300934D
:100700006F3B01930023029303930B480422694635
:1007100000F0E6FF00280CD1074800F0DBF80BB032
:1007200000BDFFF779FFFFF777FFFFF775FFFFF7D2
:1007300073FFFFF771FFC046300000200008014042
:1007400000B593B03422002105A801F0C8F91422A5
:100750000021684601F0C3F914490A68144B1A4095
:1007600080231B0113430B60102305930F3B0B9356
:1007700000230C93802212020D920E9305A800F024
:10078000C3FA00280ED10F23009300230193029394
:10079000039304930021684600F044FD002803D130
:1007A00013B000BDFFF738FFFFF736FF00700040C1
:1007B000FFE7FFFF10B500F0F9F8FFF7C1FFFFF703
:1007C00089FEFFF72BFFFFF763FF0F48042100F0BE
:1007D0003FFF0E4800F010FF00F01CF80C4B002209
:1007E0001A7001325A70AA2000F020F8012000F09F
:1007F0001DF8002000F01AF8AB2000F017F83220A6
:1008000000F0FAF8EFE7C04630000020700000204A
:100810002C00002010B5034903480A22FFF734FEDC
:1008200010BDC046B8000020B000002010B5010087
:10083000024B1800FFF72EFE10BDC046B00000208E
:1008400010B504000648FFF73DFE002800D010BD9B
:100850000348FFF72BFE20700123A370F7E7C04683
:10086000B0000020054B5A6B01210A435A63996B73
:10087000802252050A439A637047C0460010024026
:1008800010B503688022D205934203D00F4A9342E9
:100890000ED010BD0E4A936B01210B4393630022CF
:1008A00000210F2000F006F90F2000F007F9F0E713
:1008B000074A536B04210B43536300220021142089
:1008C00000F0F8F8142000F0F9F8E2E70008014021
:1008D0000010024010B586B004001422002101A8C7
:1008E00001F0FDF822680E4B9A4201D006B010BD0F
:1008F0000C4AD16A01231943D162D26A1340009392
:10090000009B80239B000193FF3BFF3B029303333B
:100910000593A02001A9C00500F0E0F8E6E7C04675
:100920000008014000100240FEE7FEE770477047F4
:1009300010B500F04FF810BD10B5024800F0D0FF20
:1009400010BDC0467000002010B5024800F0C8FF7E
:1009500010BDC046300000207047000010B50400F4
:100960000F4B1978FA208000FFF7AAFB01000D4B0E
:100970001868FFF7A5FB00F0ADF800280DD1032C97
:1009800001D901200AE0013000222100404200F09C
:1009900091F8054B1C60002000E0012010BDC0460E
:1009A00004000020000000200800002010B5084AC4
:1009B000136840210B4313600320FFF7CFFF041E91
:1009C00002D00124200010BDFFF74CFFFAE7C0461B
:1009D00000200240034A1168034B1B785B18136028
:1009E0007047C046C400002004000020014B186876
:1009F0007047C046C400002070B50400FFF7F6FF42
:100A00000500631C02D0044B1B78E418FFF7EEFFCF
:100A1000401BA042FAD370BD0400002070B500282E
:100A200011DB8308134DC0339B005C590322104037
:100A3000C000FC3216008640B44389010A4082405F
:100A400022435A5170BD0F230340083B9B080633D5
:100A50009B00094A944663445C6803221040C0002E
:100A6000FC3215008540AC4389010A408240224394
:100A70005A60E7E700E100E000ED00E00138802384
:100A80005B0498420FD2094A50600948036A1B026E
:100A90001B0AC02109060B4303620023936007333E
:100AA0001360002070470120FCE7C04610E000E022
:100AB00000ED00E010B5FFF7B1FF10BD002805DB29
:100AC0001F22024001239340014A13607047C04631
:100AD00000E100E010B5FFF7D1FF10BDF0B5002335
:100AE00056E086685F000324BC40A643CC68BC4047
:100AF00034438460446894434E683609012232408E
:100B00009A402243426053E0DE080836B600375868
:100B100005321A4092000F249440A7430C69944078
:100B200022003A43325056E0022600E00026A6405A
:100B300034003C43023292003F4E94513F4A1768C2
:100B4000EA433E00AE434C68E40301D53E002E4329
:100B50003A4C266067683E0016404C68A40301D5F5
:100B60003E002E43354C6660A7683E0016404C6838
:100B7000E40201D53E002E43304CA660E6683240C8
:100B80004C68A40201D52A0032432C4CE2600133A8
:100B90000C682200DA404DD001229A402500154011
:100BA0001442F4D04E6803243440013C012C98D9FF
:100BB0004C6803222240032A08D0C4685E00032246
:100BC000B24094438A68B2402243C2604C68032218
:100BD0002240022A98D004685E0003221700B74022
:100BE000BC434F683A40B240224302604C68C02286
:100BF00092021442CBD0124C626B012632436263E4
:100C00009A08941CA4000C4EA75903241C40A4006D
:100C10000F26A640B743A026F605B04286D0094E5F
:100C2000B04205D0084EB04200D17DE706267EE7EF
:100C300001267CE7F0BDC0460000014000040140F1
:100C4000001002400004005000080050002A01D0AB
:100C5000816170478162FCE710B5264BDA680C238E
:100C60001340082B42D00C2B11D0042B09D0214B60
:100C70005A68520B0723134001338020000298402A
:100C800010BD1C4B1B68DB0632D51B48F8E7910CE6
:100C90000F230B401949C85C920D03231A40541CC2
:100CA000144BDB68DB0309D5154A0023002100F053
:100CB00043FF22000023FFF779FBE1E70D4B1B68A0
:100CC000DB0609D50C4A0023002100F035FF220085
:100CD0000023FFF76BFBD3E70A4A0023002100F053
:100CE0002BFF22000023FFF761FBC9E70448C7E799
:100CF0000448C5E70010024000093D00441D0008FB
:100D000000127A000024F400F0B583B0041E00D174
:100D100065E2C54BDA680C251540DE6880235B026E
:100D20001E400368DB0736D5082D2CD00C2D28D0AB
:100D3000636880225202934255D0A022D20293428D
:100D400058D0B94B1A68B9490A401A601A6880210C
:100D500049020A400192019A1A68B5490A401A608C
:100D60006368002B52D0FFF741FE0700AE4B1B68B3
:100D70009B0310D4FFF73AFEC01B6428F6D903206A
:100D80002EE2002ED4D0A84B1B689B0303D56368CA
:100D9000002B00D126E223689B076DD5E3689A06F5
:100DA00005D5A148026820210A4302608B43042D27
:100DB0003CD00C2D38D0002B00D1B0E09A490A6805
:100DC0000920824313430B60FFF710FE0600964B89
:100DD0001B685B0700D599E0FFF708FE801B02281F
:100DE000F5D90320FCE1904A116880235B020B4394
:100DF0001360B5E78C4B19688022D2020A431A604F
:100E00001968802252020A431A60A9E7FFF7EEFD33
:100E10000700854B1B689B03BDD5FFF7E7FDC01B93
:100E20006428F6D90320DBE1002EC4D17E4A126883
:100E3000520702D5002B00D1D6E17B4E72687D4966
:100E40000A40216909020A437260326809218A4313
:100E500013433360FFF700FFF26812090F231340BA
:100E6000754AD35CD840754B1860754B1868FFF70E
:100E700075FD002800D0B3E12368DB062DD5002DD9
:100E800060D1694B1B689B0503D5A369002B00D17A
:100E9000ACE1654A53686B490B40216A0B435360D0
:100EA00053681B021B0AE16909060B435360216A60
:100EB000490B013180231B028B40D16809090F22A5
:100EC0000A405D498A5CD3405C4A13605C4B1868F9
:100ED000FFF744FD002800D082E123681B077DD581
:100EE0006369002B67D0504A136D01210B431365D2
:100EF000FFF77CFD06004C4B1B6D9B076ED4FFF784
:100F000075FD801B0228F6D9032069E146494B682C
:100F1000484A13402269120213434B60ACE7424A2D
:100F2000136801218B431360FFF760FD06003E4B01
:100F30001B685B07A0D5FFF759FD801B0228F6D977
:100F400003204DE1A369002B22D0374A116880238A
:100F50005B000B431360FFF749FD0600324B1B6833
:100F60009B0506D4FFF742FD801B0228F6D903201B
:100F700036E12D4A536833490B40216A0B435360D5
:100F800053681B021B0AE16909060B435360A4E77F
:100F9000254A13682C490B401360FFF727FD060014
:100FA000214B1B689B0598D5FFF720FD801B02286D
:100FB000F6D9032014E11C4A136D01218B431365FC
:100FC000FFF714FD0600184B1B6D9B0706D5FFF7B6
:100FD0000DFD801B0228F6D9032001E123685B0781
:100FE00000D48EE0104B9B6BDB001BD40E4A916B40
:100FF00080235B050B4393630126144B1B68DB05C1
:1010000028D5A36880225200934237D0002B4DD1BF
:10101000054B1A6D0C490A401A651A6D0C490A40B5
:101020001A6531E00026E8E700100240FFFFFEFFEE
:10103000FFFFFBFFFFE0FFFF501D00080000002046
:1010400008000020FF1FFFFFFFFEFFFF00700040B1
:10105000FFFBFFFF6B4A116880235B000B431360AB
:10106000FFF7C4FC0700674B1B68DB05C9D4FFF71B
:10107000BDFCC01B6428F6D90320B1E0624A116DA3
:1010800080235B000B431365A368002B28D0FFF778
:10109000ADFC07005C4B1B6D9B0530D4FFF7A6FC35
:1010A000C01B5A4B9842F5D9032099E0A022D200E8
:1010B000934209D0544B1A6D55490A401A651A6D6E
:1010C00054490A401A65DFE74F4B196D013AFF3A60
:1010D0000A431A65196D802252000A431A65D3E744
:1010E000FFF784FC0700484B1B6D9B0507D5FFF7F6
:1010F0007DFCC01B454B9842F5D9032070E0012EC2
:101100001AD0636A002B00D172E00C2D4FD0022B55
:1011100018D03D4A136840490B401360FFF766FC46
:101120000400394B1B689B013FD5FFF75FFC001B98
:101130000228F6D9032053E0334A936B37490B401A
:101140009363DEE7304A136833490B401360FFF7BF
:101150004DFC05002C4B1B689B0106D5FFF746FC98
:10116000401B0228F6D903203AE02749CB682C4AD5
:101170001340A26AE06A0243206B02431343CB6030
:101180000A6880235B0413430B60FFF72FFC040005
:101190001D4B1B689B0106D4FFF728FC001B02288F
:1011A000F6D903201CE000201AE0002018E0012BF3
:1011B00020D0154BDA6880235B021340A16A8B4272
:1011C0001AD1F0239B031340E16A8B4216D1C0234E
:1011D0001B041A40236B9A4212D1002000E0012028
:1011E00003B0F0BD0120FBE70120F9E70120F7E79C
:1011F0000020F5E70120F3E70120F1E70120EFE708
:101200000120EDE70070004000100240881300004C
:10121000FFFEFFFFFFFBFFFFFFFFFFFEFFFFFFEFF4
:10122000FFFF02FF70B505000C00002800D1D1E0DF
:101230006A4B1A68012313408B4219D32B689B0712
:1012400006D5674AD368F0218B43A9680B43D36066
:101250002B68DB077BD56B68022B20D0032B40D09B
:10126000012B44D05E4A126892051DD4012099E0FA
:101270005A4A136801218B4323431360FFF7B6FBDF
:101280000600564B1A6801231340A342D6D0FFF73D
:10129000ADFB801B534A9042F3D9032082E0504AB1
:1012A0001268920300D497E04D49CA680320824334
:1012B0001343CB60FFF79AFB06006B68022B1CD030
:1012C000032B28D0012B34D0454BDB680C221A426B
:1012D0003DD0FFF78BFB801B424B9842F4D9032093
:1012E00060E03F4A12689201DED401205AE03C4A95
:1012F00012685207D8D4012054E0394BDA680C2325
:101300001340082B23D0FFF771FB801B354A904216
:10131000F3D9032046E0324BDA680C2313400C2B40
:1013200015D0FFF763FB801B2E4B9842F3D90320A7
:1013300038E02B4BDA680C231340042B07D0FFF75F
:1013400055FB801B274B9842F3D903202AE0234BFF
:101350001A6801231340A34225D82B685B0706D5E2
:101360001F4AD36820490B40E9680B43D3602B68C0
:101370001B0707D51A49CB681C4A13402A69D200BB
:101380001343CB60FFF768FC154BDA6812090F2393
:101390001340174AD35CD840164B1860164B186898
:1013A000FFF7DCFA70BD0D4A136801218B4323431C
:1013B0001360FFF71BFB0600084B1A68012313405C
:1013C000A342CAD0FFF712FB801B064B9842F3D909
:1013D0000320E7E70120E5E70120E3E700200240E2
:1013E0000010024088130000FFF8FFFFFFC7FFFF57
:1013F000501D000800000020080000200368802223
:10140000D205904202D00F4A904203D170229343FA
:101410004A6813438022D205904202D0094A904282
:1014200003D1094A1340CA681343802293430A69CF
:10143000134303608B68C3620B68836201234361BB
:101440007047C04600080140FFFCFFFF30B5036A4B
:10145000012293430362046A4568836972329343AD
:101460000A681A4302239C438B68234345608261C8
:101470004A684263036230BD30B5036A1022934369
:101480000362046A45688369074A13400A681202C6
:101490001A4320239C438B681B01234345608261D0
:1014A0004A688263036230BDFF8CFFFF30B5036A78
:1014B0000A4A13400362046A4568C3697532FF3201
:1014C00093430A681A43064B1C408B681B02234354
:1014D0004560C2614A68C263036230BDFFFEFFFF20
:1014E000FFFDFFFF30B5036A0A4A13400362046A36
:1014F0004568C369084A13400A6812021A43074B39
:101500001C408B681B0323434560C2614A68026428
:10151000036230BDFFEFFFFFFF8CFFFFFFDFFFFF28
:1015200030B5036A046A0125AC4304628469EF356F
:10153000AC43120122430A24A3430B43826103629A
:1015400030BD000030B5036A1024A34303628469F0
:10155000036A054D2C4012032243A024A343090132
:1015600019438261016230BDFF0FFFFF8368702263
:1015700093430B43693A13438360704730B58468E3
:10158000034D2C401B0213430B432343836030BDA8
:10159000FF00FFFF10B51F23194001248C40036A90
:1015A000A3430362036A8A401343036210BD70B50C
:1015B000041E1ED03923C35C002B14D0392502230E
:1015C0006355210001C9FFF719FF01233E22A354EF
:1015D000043AA3540132A3540132A3540132A35458
:1015E0006355002070BD38330022C254FFF748F91C
:1015F000E4E70120F6E700003923C35C012B20D18A
:1016000038330222C2540268D36801210B43D360ED
:1016100003688022D205934208D00C4A934205D039
:101620001A6801210A431A6000200BE0996807221A
:101630000A40062A07D01A6801210A431A600020CE
:1016400000E0012070470020FCE7C0460008014090
:1016500010B5040000680122FFF79CFF22681368A0
:1016600001210B431360002010BD000010B50400E1
:1016700000680022FFF78EFF2368196A044A1142AE
:1016800003D11A6801218A431A60002010BDC046A8
:1016900011110000704770B5041E1ED03923C35CC1
:1016A000002B14D0392502236355210001C9FFF70F
:1016B000A5FE01233E22A354043AA3540132A354AD
:1016C0000132A3540132A3546355002070BD383356
:1016D0000022C254FFF7DEFFE4E70120F6E7000036
:1016E00070B504000D003823C35C012B00D16AE003
:1016F00038230121C154082A50D01CD8002A38D0E0
:10170000042A16D100682900FFF7B6FE2268916905
:1017100080231B010B439361226893692B490B4083
:10172000936121688B69EA68120213438B61002080
:101730001BE0080019E00C2A16D100682900FFF709
:10174000D1FE2268D16980231B010B43D36122683B
:10175000D3691E490B40D3612168CB69EA68120244
:101760001343CB61002000E0012038230022E25423
:1017700070BD00682900FFF769FE2268936908219F
:101780000B4393612268936904398B439361226808
:101790009369E9680B4393610020E6E7006829003C
:1017A000FFF784FE2268D36908210B43D3612268C6
:1017B000D36904398B43D3612268D369E9680B4349
:1017C000D3610020D1E70220D2E7C046FFFBFFFF34
:1017D00010B504003823C35C012B00D178E0382316
:1017E0000122C25401330132C2540268936839485D
:1017F000034093600B68602B50D02AD8402B58D000
:101800000CD9502B23D1CA6849682068FFF788FE9D
:1018100020685021FFF7AAFE002005E0202B0ED003
:1018200009D9302B0BD0012039230122E254013B8E
:101830000022E25410BD002B01D0102B05D12068EE
:101840001900FFF793FE0020EEE70120ECE70120EE
:10185000EAE780225201934236D0802292019342DD
:101860000DD1CB684A6889682068FFF787FE226837
:1018700091688023DB010B4393600020D4E7702B39
:1018800024D1CB684A6889682068FFF777FE226810
:10189000936877210B4393600020C5E7CA684968C5
:1018A0002068FFF74FFE20686021FFF75FFE0020F1
:1018B000BAE7CA6849682068FFF732FE206840210D
:1018C000FFF754FE0020AFE70020ADE70120ABE7B3
:1018D0000220AFE78800FFFF7047704770477047EE
:1018E00010B50400026813699B070FD5D3689B07E6
:1018F0000CD503235B4213610433037603689B69B1
:101900009B0755D0FFF7E9FF002323762268136970
:101910005B0712D5D3685B070FD505235B421361C4
:101920000733237623689A69C0239B001A4245D067
:101930002000FFF7D2FF00232376226813691B07DC
:1019400010D5D3681B070DD509235B4213610D33F6
:1019500023762368DB699B0737D02000FFF7BDFFA4
:101960000023237622681369DB0612D5D368DB06D1
:101970000FD511235B421361193323762368DA698B
:10198000C0239B001A4227D02000FFF7A6FF0023A8
:10199000237622681369DB0702D5D368DB0722D4DC
:1019A000226813695B0602D5D3685B0622D410BD9A
:1019B000FFF792FF2000FFF791FFA5E72000FFF758
:1019C0008BFF2000FFF78AFFB5E72000FFF784FFB9
:1019D0002000FFF783FFC3E72000FFF77DFF200013
:1019E000FFF77CFFD3E702235B4213612000FEF781
:1019F0009FFDD5E741235B4213612000FFF76FFF96
:101A0000D5E7000030B53823C35C012B22D0382342
:101A10000122C25401330132C25403685C689D68DC
:101A20006E3294430A6822435A6003688022D205CA
:101A3000934202D0084A934204D1802295434A68D7
:101A40002A439A6039230122C254013B0022C25426
:101A5000002030BD0220FCE7000801401348854605
:101A600013480168090E134A914205D112481349DF
:101A7000016013481349016013481449144A0023B4
:101A800002E0D458C4500433C4188C42F9D3114A2C
:101A9000114C002301E013600432A242FBD3FEF795
:101AA0005BFF00F025F8FEF785FEFEE7000800204A
:101AB000040000001F00000034100240010000007C
:101AC0000000014000000000000000200C00002089
:101AD000701D00080C000020C8000020FEE7030075
:101AE0008218934200D1704719700133F9E7000062
:101AF00070B500260C4C0D4D641BA410A64209D1F4
:101B0000002600F013F90A4C0A4D641BA410A642EB
:101B100005D170BDB300EB5898470136EEE7B3002E
:101B2000EB5898470136F2E7681D0008681D000869
:101B30006C1D0008681D0008F0B5CE469946030CE0
:101B40009C46130447461B0C1D000E00614604040E
:101B5000240C80B50700100C4B43654341436043A0
:101B60002C0CC01824188C46A34203D980235B0296
:101B70009846C444494679435643230C2D042D0C02
:101B80008919634424046019C918C0BCB946B04619
:101B9000F0BDC046F0B557464E464546DE46E0B578
:101BA00004000D009246994683B08B4230D82DD068
:101BB00049465046FEF71AFC290006002000FEF7B1
:101BC00015FC331A9846203B34D49B4653465A465C
:101BD000934042461F00534693401E00AF423BD8FD
:101BE000AF4200D179E05B46A41BBD41002B00DA77
:101BF00076E0002200230092019301235A4693408D
:101C00000193012342469340009329E08242CFD9B9
:101C100000220023009201930C9B002B01D01C603A
:101C20005D600098019903B0F0BCBB46B246A9467E
:101C3000A046F0BD42469B4620239B1A5246DA40FE
:101C4000414613004A468A40170042461F43534606
:101C500093401E00AF42C3D900220023009201939B
:101C60004346002BD8D0FB0772081A4346467B0830
:101C70000EE0AB4201D1A2420CD8A41A9D41012032
:101C800024196D410021013E24184D41002E06D03B
:101C9000AB42EED9013E24196D41002EF8D10098D7
:101CA00001995B4600196941002B24DB2B005A4641
:101CB0004446D3402A00E2401C005B461500002B3E
:101CC0002ADB26009E40330026004746BE403200F5
:101CD000801A9941009001919EE7A342BCD882E707
:101CE0004246202300219B1A0022009101920122EA
:101CF000DA40019285E7424620239B1A2A00464695
:101D00009A402300F340444613432A00E2401C005B
:101D10005B461500002BD4DA42462F002023260014
:101D200097409B1ADE403B003343CDE7F8B5C046F1
:101D3000F8BC08BC9E467047F8B5C046F8BC08BC65
:041D40009E46704704
:101D4400030406080C1018203000000000000000F6
:0C1D54000000000001020304060708095B
:081D600034FEFF7F01000000CA
:041D68006904000802
:041D6C004104000826
:0C1D700000002000010000000400000042
:0400000508001A5D78
:00000001FF
