:020000040800F2
:10000000F806002065010008651400085B1300086D
:1000100000000000000000000000000000000000E0
:10002000000000000000000000000000691400084B
:100030000000000000000000671400086B140008B6
:100040009501000895010008950100089501000838
:100050009501000895010008950100089501000828
:1000600000000000950100089501000895010008B6
:10007000950100089501000800000000F114000837
:100080000000000000000000000000000000000070
:10009000E1140008000000000000000095010008C5
:1000A00000000000950100080000000000000000B2
:1000B0009501000895010008000000000000000004
:1000C00000F002F800F03EF80CA030C80838241800
:1000D0002D18A246671EAB4654465D46AC4201D180
:1000E00000F030F87E460F3E0FCCB6460126334274
:1000F00000D0FB1AA246AB46334318478C160000CB
:10010000AC160000103A02D378C878C1FAD852076A
:1001100001D330C830C101D504680C6070470000BD
:100120000023002400250026103A01D378C1FBD813
:10013000520700D330C100D50B6070471FB51FBDFB
:1001400010B510BD00F099F91146FFF7F7FF01F067
:10015000E1FA00F0B1F903B4FFF7F2FF03BC00F0DD
:10016000B7F900000F4880F308880F480168090EAE
:100170000E4A914205D10E480E4901600E480F49C2
:1001800001600F4880470F480047FEE7FEE7FEE7A3
:10019000FEE7FEE7FEE700000B480C490C4A0D4B5A
:1001A00070470000F8060020040000001F00000057
:1001B0003410024001000000000001400000000077
:1001C000DD140008C1000008F8000020F806002037
:1001D000F8020020F8020020FEB5054610460C4645
:1001E000184373D0AE468C460020AD1A01469C41A0
:1001F00067D36646002701243D46B61A9D4102D3C7
:1002000013463A462124654676462F04360C3E4373
:100210002D0CB61A9D4104D3150C1B042B4312045C
:100220001034654676462F06360A3E432D0AB61A26
:100230009D4104D3150E1B022B4312020834654660
:1002400076462F0736093E432D09B61A9D4104D341
:10025000150F1B012B431201241D65467646AF077F
:10026000B6083E43AD08B61A9D4104D3950F9B00D6
:100270002B439200A41C65467646EF0776083E4362
:100280006D08B61A9D411AD392185B41641C16E0A2
:100290000018764665464941B71A9D410191009084
:1002A00009D36046B11A98418E4684460098019958
:1002B0000025401C6941DD0752082A435B08641E83
:1002C000E6D57246634603B0F0BDFFE70020014665
:1002D000C046C0462A462346F5E701E004C0091F90
:1002E0000429FBD28B0701D50280801CC90700D0EE
:1002F0000270704700290BD0C30702D00270401C67
:10030000491E022904D3830702D50280801C891E5E
:10031000E3E70022EEE70022DFE7002203098B4239
:100320002CD3030A8B4211D300239C464EE0034694
:100330000B433CD4002243088B4231D303098B4248
:100340001CD3030A8B4201D394463FE0C3098B427E
:1003500001D3CB01C01A524183098B4201D38B01D7
:10036000C01A524143098B4201D34B01C01A52417A
:1003700003098B4201D30B01C01A5241C3088B42BF
:1003800001D3CB00C01A524183088B4201D38B00AA
:10039000C01A524143088B4201D34B00C01A52414C
:1003A000411A00D201465241104670475DE0CA0F23
:1003B00000D04942031000D34042534000229C46E3
:1003C00003098B422DD3030A8B4212D3FC228901ED
:1003D00012BA030A8B420CD3890192118B4208D3C3
:1003E000890192118B4204D389013AD0921100E025
:1003F0008909C3098B4201D3CB01C01A5241830939
:100400008B4201D38B01C01A524143098B4201D365
:100410004B01C01A524103098B4201D30B01C01A90
:100420005241C3088B4201D3CB00C01A524183080A
:100430008B4201D38B00C01A5241D9D243088B4260
:1004400001D34B00C01A5241411A00D20146634603
:1004500052415B10104601D34042002B00D5494267
:10046000704763465B1000D3404201B50020C04690
:10047000C04602BD704770477047754600F024F8CB
:10048000AE46050069465346C008C000854618B010
:1004900020B5FFF781FE60BC00274908B64600265C
:1004A000C0C5C0C5C0C5C0C5C0C5C0C5C0C5C0C524
:1004B000403D49008D46704710B50446C046C046D1
:1004C0002046FFF748FE10BD00487047940000200A
:1004D00001491820ABBEFEE726000200704700006D
:1004E000F8B5002303240125B3E032462E469E4092
:1004F000B446324079D00E79B607B60F012E01D03E
:10050000022E17D186682746B6465E00B740009691
:100510007646BE43B646CF68009EB7407646374320
:10052000876046686746BE430F79FF06FF0F9F400E
:10053000374347600E79F643B6070ED0C6682746A4
:10054000B4465E00B646B7406646BE43B4468F68C2
:100550007646B74066463743C7600E79B607B60F92
:10056000022E14D1DE08B60036180096366A5F07F0
:10057000B446FE0E0F27B646B7406646BE43B446A5
:100580000F697646B74066463743009E3762066875
:100590002746B4465E00B646B7406646BE430F796E
:1005A000B446BF07BF0F7646B7406646374307607D
:1005B0004E68B603B60F4BD0294F7E6B2E437E6339
:1005C0009F08284EBF00BE190096B6680F27B44694
:1005D0009E07360FB646B7406646BE4305273F071F
:1005E000B446B84202D100270BE031E01E4FB842BA
:1005F00001D1012705E01D4FB84201D1022700E0DB
:1006000006277646B74066463743009EB760184EC9
:1006100036684F689643FF0300D51643144F3E607B
:100620007E684F689643BF0300D51643104F7E6027
:10063000BE684F689643FF0200D516430C4FBE605C
:10064000FE684F689643BF0200D51643084AD6603D
:100650005B1C0A681646DA4000D046E7F8BD000089
:10066000001002400000014000040050000800504B
:100670000004014001488068704700000400002029
:100680000248816802788918816070470400002060
:1006900010B508480024016840221143016003207E
:1006A00000F00AF8002801D0012401E000F026F84B
:1006B000204610BD0020024070B504460D4D7D203F
:1006C0002978C000FFF729FE01460B480068FFF7B4
:1006D00024FE00F053FB002809D1042C07D200228D
:1006E0002146401E00F022F800206C6070BD012001
:1006F00070BD000004000020100000200448416B81
:10070000012211434163816B0204114381637047ED
:1007100000100240002805DBC106C90E01208840F8
:10072000014908607047000000E100E010B500F0EA
:10073000CFFF10BDF8B50E46050038D05E48006802
:10074000C007C00FB04214D25B4C20684008400084
:1007500030432060FFF78EFF074605E0FFF78AFF72
:10076000C11B564881427AD82068C007C00FB042EA
:10077000F4D12878524C800705D5E068F0218843F1
:10078000A9680843E0602878C00752D0686802284A
:1007900006D0032807D0216801280AD0890504E083
:1007A0002168890301E021688901002903DB012018
:1007B000F8BD4907F9E7E168890889000143E1606C
:1007C000FFF758FF0746686802280AD0032814D0AC
:1007D00001281ED029E0FFF74DFFC11B3748814299
:1007E0003DD8E0680007800F0228F4D121E0FFF730
:1007F00041FFC11B3148814231D8E0680007800FBA
:100800000328F4D115E0FFF735FFC11B2B488142C7
:1008100025D8E0680007800F0128F4D109E0FFF730
:1008200029FFC11B2548814219D8E0680007800FC5
:10083000F5D121480168C907C90FB14217D901682C
:100840004908490031430160FFF714FF074608E0FB
:1008500005E0FFF70FFFC11B1848814201D90320B3
:10086000F8BD15480068C007C00FB042F1D1287824
:10087000400706D5E068072109028843E968084374
:10088000E0602878000707D5E0680721C90288439F
:100890002969C9000843E06000F01AF8E168094AD4
:1008A0000906090F515CC8400749086007480068FD
:1008B000FFF702FFF8BD000000200240881300008F
:1008C000001002406C1700081000002008000020F3
:1008D00070B51A4AD3681A490C2018408D000428B4
:1008E0000CD04E00082810D00C2810D050680004FE
:1008F000410F0120C003491C884070BD1068C0062C
:1009000001D5084670BD284670BD304670BD9802BE
:100910000C4C000F205C1B029C0FD368641CDB0393
:1009200001D5314603E01268D20600D4294600F012
:10093000B6FE22460023FFF74FFC70BD00100240B8
:1009400000093D007C170008FEB505007ED0F74C7D
:10095000E7680C20E668074001200004064028787C
:10096000C00747D0082F05D00C2F0AD10120000462
:10097000864206D1206880033CD568680028E5D00F
:1009800038E0012069680004814203D121680143F5
:10099000216011E0052301221B0492049942216881
:1009A00002D111432160F1E78143216021680140B8
:1009B0000091206890432060686800280DD0FFF700
:1009C00059FE009005E0FFF755FE0099401A642893
:1009D0007ED820688003F6D50CE0FFF74BFE009030
:1009E00005E0FFF747FE0099401A6428F0D8206818
:1009F0008003F6D4287880075DD5E868810604D5A1
:100A0000226820210A43226088430923042F0DD045
:100A10000C2F01D1002E09D000283CD02168994329
:100A200001432160FFF726FE064628E021684907BA
:100A300001D500288AD061681F22120291432A69D9
:100A40001202114361602168994300E091E1014382
:100A50002160FFF73DFFE16809060A0FB449895C90
:100A6000C840B4490860B4480068FFF725FE002874
:100A700074D120E0FFF7FEFD801B0228A8D8206873
:100A80004007F7D560681F210902884329690902D8
:100A9000084360600FE02068400840002060FFF7D6
:100AA000E9FD064604E0FFF7E5FD801B02288FD82C
:100AB00020684007F7D42878C00661D5002F0DD0F4
:100AC000A86900284BD02068FF210131084300E0CD
:100AD000C6E02060FFF7CEFD06462DE020688005C9
:100AE00002D5A8690028A5D060680721490388437A
:100AF000296A084360606068297F0002000A0906CD
:100B000008436060286A410B0120C003491C8840EB
:100B1000E16809060A0F8649895CC8408549086072
:100B200085480068FFF7C8FD002817D128E0FFF7C7
:100B3000A1FD801B0228A1D820688005F7D5606838
:100B4000072149038843296A084360606068297F58
:100B50000002000A09060843606011E0E1E0216834
:100B6000FF20013081432160FFF784FD064604E049
:100B7000FFF780FD801B022872D820688005F7D41B
:100B800028786E4E000724D568690028306910D097
:100B9000012108433061FFF76DFD009005E0FFF78C
:100BA00069FD0099401A02285AD830698007F6D5A5
:100BB0000FE0400840003061FFF75CFD009005E069
:100BC000FFF758FD0099401A022849D8306980077C
:100BD000F6D42878400765D500200290A06BC000AD
:100BE00006D4A06B012109070843A06301200290ED
:100BF00053480168C90511D4016882151143016089
:100C0000FFF738FD009005E0FFF734FD0099401A2A
:100C1000642825D84A480068C005F5D5FF20AA6891
:100C20000130824203D131690143316111E0012178
:100C30008902002A07D005231B029A4203D1326998
:100C40000A433261EFE73269824332613069884397
:100C50003061A86800280FD0FFF70CFD009007E076
:100C60005EE0FFF707FD0099411A3648814257D8E8
:100C700030698005F5D50DE0FFF7FCFC009006E03B
:100C8000FFF7F8FC0099411A2E48814248D8306994
:100C90008005F5D40298002804D0A06B0121090733
:100CA0008843A063686A002865D00C2F4CD00126C9
:100CB00036060228206805D0B0432060FFF7DAFC32
:100CC00005462FE0B0432060FFF7D4FC074604E060
:100CD000FFF7D0FCC01B022822D820688001F7D47F
:100CE000E96AA86AE2680843296BFD231B049A435A
:100CF00011430843E060206830432060FFF7BAFCEE
:100D0000054604E0FFF7B6FC401B022808D820681F
:100D10008001F7D52FE0FFF7ADFC401B022801D979
:100D20000320FEBD20688001F5D424E000100240BD
:100D30006C1700081000002008000020401002403E
:100D400000700040881300000128EAD0E06801210B
:100D50000904AA6A014091420BD10F218904EA6A71
:100D60000140914205D1032189050840296B884241
:100D700001D00120FEBD0020FEBD0000094910B5D4
:100D8000401E884201D9012010BD074C606103213B
:100D9000081F00F09DFC0020A061072020610020BA
:100DA00010BD0000FFFFFF0000E000E0F0B50246CC
:100DB0002032137E012B1BD0012616760223537698
:100DC00005686B68AC687027BB430F681F436F6092
:100DD0000068B307984202D0064B984204D18023A2
:100DE00049689C4321438160567600201076F0BD0F
:100DF0000220F0BD0008014070B5050005D02C466A
:100E00002034607E002802D006E0012070BD002062
:100E10002076284600F010F802206076291D286808
:100E200000F06EFB0120A077A076E0762077607757
:100E30006076002070BD000010B5012201689207A5
:100E40000E4891420AD1816B012211438163002235
:100E500011460F20FFF76AFC0F200CE0084A914270
:100E60000BD1416B0422114341630022114614202F
:100E7000FFF75CFC1420FFF74DFC10BD0010024092
:100E800000080140014620314A7E012A01D001209C
:100E9000704702224A760268D36801210B43D3606F
:100EA00000688A07904202D0064A904204D18268C4
:100EB0005207520F062A02D002680A43026000203D
:100EC0007047000000080140F8B50546044620358B
:100ED000287E0026012817D0012028760220687677
:100EE000226890687727FF23B8431B0298439060DD
:100EF0000868502838D00EDC20284FD006DC0028A7
:100F00004CD010281ED149E00220F8BD302845D031
:100F1000402817D13AE060282ED0702819D001223D
:100F20001203801A0FD090420CD1CB684A688968AE
:100F3000206800F016FB20688168012292031143AB
:100F4000816000E001260120687600202876304686
:100F5000F8BDCB684A688968206800F002FB216808
:100F6000886838438860EEE7CA684968206800F0FE
:100F700072FB5021206806E0CA684968206800F0CA
:100F80007BFB6021206800F0F7FADCE7CA6849685B
:100F9000206800F060FB40212068F4E722680146E9
:100FA0001046F0E7704770B50446006801690025F7
:100FB000C9438907002915DBC168C943890711D4D2
:100FC000E91E0161012020762068806980072046A3
:100FD00002D0FFF7E7FF04E000F09EF8204600F0A3
:100FE00083F9257620680169C943490717D4C16888
:100FF000C943490713D40421C94301610220207663
:10100000206880698005800F204602D0FFF7CAFF64
:1010100004E000F081F8204600F066F925762068AB
:101020000169C943090716D4C168C943090712D425
:101030000821C9430161042020762068C069800727
:10104000204602D0FFF7AEFF04E000F065F820462E
:1010500000F04AF9257620680169C943C90617D40A
:10106000C168C943C90613D41021C94301610820CE
:1010700020762068C0698005800F204602D0FFF7E7
:1010800091FF04E000F048F8204600F02DF92576A5
:1010900020680169C943C90708D1C168C943C907A4
:1010A00004D1891E0161204600F020F92068016901
:1010B000C943490609D4C168C943490605D440213A
:1010C000C9430161204600F047F970BD10B586B0F4
:1010D000044614216846FFF71EF90D49206888422E
:1010E00014D10C48C16A01221143C162C06A694629
:1010F00010400590500200900220019000200290C4
:101100000390052004900007FFF7EAF906B010BD30
:1011100000080140001002407047000070B505460D
:101120002C4602202034002908D004290BD008299D
:101130000ED0627F012A10D0012070BDA27E012A4C
:10114000FAD1A0760AE0E27E012AF5D1E07605E048
:10115000227F012AF0D1207700E060770122286801
:1011600000F0F2F90122286892070121904202D092
:10117000064A904204D182685207520F062A02D0D2
:1011800002680A430260002070BD000000080140B0
:1011900070B504460D460068002200F0D5F92068BD
:1011A000016A0C4A114203D10168490849000160F3
:1011B00001202034002D06D0042D06D0082D06D0A5
:1011C0006077002070BDA076FBE7E076F9E7207736
:1011D000F7E7000011110000F8B506460446203676
:1011E000307E00270D4601280ED001203076002ADF
:1011F0000CD0042A1BD0082A2FD00C2A3ED001275D
:10120000002030763846F8BD0220F8BD206800F096
:10121000BBF92068816908221143816120688269D5
:1012200004218A43826120688169EA6812E02068AB
:1012300000F0C2F9206882690121C9020A43826173
:10124000206881690122920291438161206881694D
:10125000EA68120211438161D2E7206800F0C5F903
:101260002068C16908221143C1612068C269042154
:101270008A43C2612068C169EA6812E0206800F010
:10128000CFF92068C1690122D2021143C1612068EF
:10129000C269012189028A43C2612068C169EA6882
:1012A00012021143C161ABE770B5050005D02C46B1
:1012B0002034607E002802D006E0012070BD0020AE
:1012C0002076284600F00FF802206076291D286855
:1012D00000F016F90120A077A076E07620776077FD
:1012E0006076002070BD704770470000184910B547
:1012F00088422BD1164804214030FFF749FF154C96
:101300002078002818D0611C09280DD20978012204
:10131000401E82401140C1400ED10D480421403092
:10132000FFF736FF207805E0092805D04978093114
:10133000814207D9401C08E0054804214030FFF7EE
:10134000EDFEEFE7814201D10020207010BD0000CA
:1013500014000020000000207047FEE730B58BB07D
:101360000024049405940694079408942149224883
:101370000994009401940294039412C0046001251E
:1013800084604560C4600838FFF736FD002801D04E
:1013900072B6FEE701200003049004A91648FFF787
:1013A00093FD002801D072B6FEE71348FFF77CFFDB
:1013B000002801D072B6FEE7089408A90E480994E7
:1013C000FFF7F4FC002801D072B6FEE77020009011
:1013D000029404226946019503940748FFF7FCFE36
:1013E000002801D072B6FEE70348FFF76FFE0BB08E
:1013F00030BD0000000801405400002010B586B048
:10140000002400940121154801940294039404944B
:101410008907059412C0046084601149C46041606A
:101420000838FFF7E9FC002801D072B6FEE701207A
:101430000003009069460948FFF746FD002801D0E7
:1014400072B6FEE7049404A904480594FFF7AEFCC5
:10145000002801D072B6FEE706B010BD14000020CF
:1014600010270000FEE77047704710B5FFF708F936
:1014700010BD000010B592B034216846FEF74BFF56
:1014800014210DA8FEF747FF134801680322D2027A
:101490009143C21489180160102000900120069029
:1014A0000024C0030890079409946846FFF74CFA9B
:1014B000002801D072B6FEE70F200D900E940F9415
:1014C0001094002111940DA8FFF734F9002801D0E1
:1014D00072B6FEE712B010BD007000407047000009
:1014E00010B50248FFF75FFD10BD0000540000205A
:1014F00010B50248FFF757FD10BD00001400002092
:1015000030B5026801239B070E4C984201D0A042DF
:1015100003D17025AA434D682A43984201D0A042C6
:1015200004D103231B029A43CB681A4380239A43B6
:101530000B691A4302608A68C262096881620121EC
:10154000416130BD0008014010B5CB06DB0E012122
:10155000046A99408C430462016A9A401143016213
:1015600010BD30B58468FF252D021B021343AC4328
:101570000B432343836030BD826870239A430A4340
:1015800007210A438260704730B5026A5208520050
:101590000262026A456883697024A3439C080B6851
:1015A000A40023430224A2438C6845601443836152
:1015B00049684163046230BD30B5026A10239A4322
:1015C0000262036A4568826973242402A2430C689C
:1015D00024021443202293438A68456012011A436F
:1015E000846149688163026230BD30B5026AFF23BD
:1015F00001339A430262026A4568C3697024A343B7
:101600009C080B68A400234301246402A2438C6855
:10161000456024021443C3614968C163046230BD5C
:1016200030B5026A01231B039A430262036A4568CC
:10163000C26973242402A2430C68240214430122C9
:10164000520393438A68456012031A43C461496890
:101650000164026230BD30B5036A046A6408640044
:1016600004628469F025AC43120122430A24A34397
:101670000B438261036230BD30B5036A1024A3437B
:1016800003628469036A0F252D031203AC432243CE
:10169000A024A343090119438261016230BDF8B55A
:1016A000040C8BB2264682B25E430D0C1046370CFA
:1016B0005843360480190021794116466E43370C91
:1016C00036048019794126466E438919F8BD000019
:1016D0008307FF22DB0E9A408907090E99400028F4
:1016E00008DB830809489B001B18186890430843CF
:1016F000186070470007000F0838830804489B00F3
:101700001B18D86990430843D861704700E400E093
:1017100000ED00E008B5FEF7BBFFFFF7ABFE0F489A
:10172000C16A01221143C162C06A10400090FFF7F4
:1017300065FEFFF713FE04210948FFF7EFFC084898
:101740004038FFF79FFB0748002101700A214170D4
:101750001121044800F008F8FAE7000000100240E8
:1017600054000020010000200170704700000000BC
:10177000000000000102030406070809030406082C
:101780000C10182030000000A817000800000020EE
:101790001400000004010008BC1700081400002019
:1017A000E406000020010008000000000100000025
:0C17B00004000000000000000000200009
:04000005080000C12E
:00000001FF
